{
  "contractName": "Blog",
  "abi": [
    {
      "inputs": [
        {
          "internalType": "uint256",
          "name": "",
          "type": "uint256"
        }
      ],
      "name": "blogs",
      "outputs": [
        {
          "internalType": "string",
          "name": "author",
          "type": "string"
        },
        {
          "internalType": "string",
          "name": "content",
          "type": "string"
        },
        {
          "internalType": "uint256",
          "name": "createdAt",
          "type": "uint256"
        }
      ],
      "stateMutability": "view",
      "type": "function"
    },
    {
      "inputs": [
        {
          "internalType": "string",
          "name": "_author",
          "type": "string"
        },
        {
          "internalType": "string",
          "name": "_content",
          "type": "string"
        }
      ],
      "name": "createBlog",
      "outputs": [],
      "stateMutability": "nonpayable",
      "type": "function"
    },
    {
      "inputs": [
        {
          "internalType": "uint256",
          "name": "_index",
          "type": "uint256"
        }
      ],
      "name": "getBlog",
      "outputs": [
        {
          "internalType": "string",
          "name": "",
          "type": "string"
        },
        {
          "internalType": "string",
          "name": "",
          "type": "string"
        },
        {
          "internalType": "uint256",
          "name": "",
          "type": "uint256"
        }
      ],
      "stateMutability": "view",
      "type": "function"
    },
    {
      "inputs": [],
      "name": "getBlogsCount",
      "outputs": [
        {
          "internalType": "uint256",
          "name": "",
          "type": "uint256"
        }
      ],
      "stateMutability": "view",
      "type": "function"
    }
  ],
  "bytecode": "0x608060405234801561000f575f80fd5b50610b0e8061001d5f395ff3fe608060405234801561000f575f80fd5b506004361061004a575f3560e01c80635958f6c61461004e57806380f052d81461006c578063c1e415861461009e578063d4868baa146100ba575b5f80fd5b6100566100ec565b604051610063919061048c565b60405180910390f35b610086600480360381019061008191906104e0565b6100f7565b60405161009593929190610595565b60405180910390f35b6100b860048036038101906100b39190610704565b610237565b005b6100d460048036038101906100cf91906104e0565b6102b8565b6040516100e393929190610595565b60405180910390f35b5f8080549050905090565b5f8181548110610105575f80fd5b905f5260205f2090600302015f91509050805f018054610124906107a7565b80601f0160208091040260200160405190810160405280929190818152602001828054610150906107a7565b801561019b5780601f106101725761010080835404028352916020019161019b565b820191905f5260205f20905b81548152906001019060200180831161017e57829003601f168201915b5050505050908060010180546101b0906107a7565b80601f01602080910402602001604051908101604052809291908181526020018280546101dc906107a7565b80156102275780601f106101fe57610100808354040283529160200191610227565b820191905f5260205f20905b81548152906001019060200180831161020a57829003601f168201915b5050505050908060020154905083565b5f60405180606001604052808481526020018381526020014281525090505f81908060018154018082558091505060019003905f5260205f2090600302015f909190919091505f820151815f0190816102909190610974565b5060208201518160010190816102a69190610974565b50604082015181600201555050505050565b6060805f80805490508410610302576040517f08c379a00000000000000000000000000000000000000000000000000000000081526004016102f990610a8d565b60405180910390fd5b5f80858154811061031657610315610aab565b5b905f5260205f2090600302016040518060600160405290815f8201805461033c906107a7565b80601f0160208091040260200160405190810160405280929190818152602001828054610368906107a7565b80156103b35780601f1061038a576101008083540402835291602001916103b3565b820191905f5260205f20905b81548152906001019060200180831161039657829003601f168201915b505050505081526020016001820180546103cc906107a7565b80601f01602080910402602001604051908101604052809291908181526020018280546103f8906107a7565b80156104435780601f1061041a57610100808354040283529160200191610443565b820191905f5260205f20905b81548152906001019060200180831161042657829003601f168201915b505050505081526020016002820154815250509050805f015181602001518260400151935093509350509193909250565b5f819050919050565b61048681610474565b82525050565b5f60208201905061049f5f83018461047d565b92915050565b5f604051905090565b5f80fd5b5f80fd5b6104bf81610474565b81146104c9575f80fd5b50565b5f813590506104da816104b6565b92915050565b5f602082840312156104f5576104f46104ae565b5b5f610502848285016104cc565b91505092915050565b5f81519050919050565b5f82825260208201905092915050565b5f5b83811015610542578082015181840152602081019050610527565b5f8484015250505050565b5f601f19601f8301169050919050565b5f6105678261050b565b6105718185610515565b9350610581818560208601610525565b61058a8161054d565b840191505092915050565b5f6060820190508181035f8301526105ad818661055d565b905081810360208301526105c1818561055d565b90506105d0604083018461047d565b949350505050565b5f80fd5b5f80fd5b7f4e487b71000000000000000000000000000000000000000000000000000000005f52604160045260245ffd5b6106168261054d565b810181811067ffffffffffffffff82111715610635576106346105e0565b5b80604052505050565b5f6106476104a5565b9050610653828261060d565b919050565b5f67ffffffffffffffff821115610672576106716105e0565b5b61067b8261054d565b9050602081019050919050565b828183375f83830152505050565b5f6106a86106a384610658565b61063e565b9050828152602081018484840111156106c4576106c36105dc565b5b6106cf848285610688565b509392505050565b5f82601f8301126106eb576106ea6105d8565b5b81356106fb848260208601610696565b91505092915050565b5f806040838503121561071a576107196104ae565b5b5f83013567ffffffffffffffff811115610737576107366104b2565b5b610743858286016106d7565b925050602083013567ffffffffffffffff811115610764576107636104b2565b5b610770858286016106d7565b9150509250929050565b7f4e487b71000000000000000000000000000000000000000000000000000000005f52602260045260245ffd5b5f60028204905060018216806107be57607f821691505b6020821081036107d1576107d061077a565b5b50919050565b5f819050815f5260205f209050919050565b5f6020601f8301049050919050565b5f82821b905092915050565b5f600883026108337fffffffffffffffffffffffffffffffffffffffffffffffffffffffffffffffff826107f8565b61083d86836107f8565b95508019841693508086168417925050509392505050565b5f819050919050565b5f61087861087361086e84610474565b610855565b610474565b9050919050565b5f819050919050565b6108918361085e565b6108a561089d8261087f565b848454610804565b825550505050565b5f90565b6108b96108ad565b6108c4818484610888565b505050565b5b818110156108e7576108dc5f826108b1565b6001810190506108ca565b5050565b601f82111561092c576108fd816107d7565b610906846107e9565b81016020851015610915578190505b610929610921856107e9565b8301826108c9565b50505b505050565b5f82821c905092915050565b5f61094c5f1984600802610931565b1980831691505092915050565b5f610964838361093d565b9150826002028217905092915050565b61097d8261050b565b67ffffffffffffffff811115610996576109956105e0565b5b6109a082546107a7565b6109ab8282856108eb565b5f60209050601f8311600181146109dc575f84156109ca578287015190505b6109d48582610959565b865550610a3b565b601f1984166109ea866107d7565b5f5b82811015610a11578489015182556001820191506020850194506020810190506109ec565b86831015610a2e5784890151610a2a601f89168261093d565b8355505b6001600288020188555050505b505050505050565b7f426c6f6720706f737420646f6573206e6f742065786973742e000000000000005f82015250565b5f610a77601983610515565b9150610a8282610a43565b602082019050919050565b5f6020820190508181035f830152610aa481610a6b565b9050919050565b7f4e487b71000000000000000000000000000000000000000000000000000000005f52603260045260245ffdfea2646970667358221220e57c520b53e16a38d11f97699e2bf364b60b5c4f464c52df4d38e94e7423ed7b64736f6c63430008150033",
  "immutableReferences": {},
  "source": "// SPDX-License-Identifier: MIT\r\npragma solidity ^0.8.0;\r\n\r\ncontract Blog {\r\n    struct BlogPost {\r\n        string author;\r\n        string content;\r\n        uint256 createdAt;\r\n    }\r\n\r\n    BlogPost[] public blogs;\r\n\r\n    function createBlog(string memory _author, string memory _content) public {\r\n        BlogPost memory newBlog = BlogPost({\r\n            author: _author,\r\n            content: _content,\r\n            createdAt: block.timestamp\r\n        });\r\n        blogs.push(newBlog);\r\n    }\r\n\r\n    function getBlog(uint256 _index) public view returns (string memory, string memory, uint256) {\r\n        require(_index < blogs.length, \"Blog post does not exist.\");\r\n        BlogPost memory blog = blogs[_index];\r\n        return (blog.author, blog.content, blog.createdAt);\r\n    }\r\n\r\n    function getBlogsCount() public view returns (uint256) {\r\n        return blogs.length;\r\n    }\r\n}",
  "sourcePath": "C:\\Users\\yashp\\OneDrive\\Desktop\\BC\\BlogDApp\\contracts\\Blog.sol",
  "compiler": {
    "name": "solc",
    "version": "0.8.21+commit.d9974bed.Emscripten.clang"
  },
  "schemaVersion": "3.4.16",
  "updatedAt": "2024-10-24T19:45:11.800Z",
  "devdoc": {
    "kind": "dev",
    "methods": {},
    "version": 1
  },
  "userdoc": {
    "kind": "user",
    "methods": {},
    "version": 1
  }
}